:4000000080673030303030307e3030307e3030307e3030307e3030307e3030307e3030307d0af27e7e3030307d0af57e7d09ad7e7e3030307d09b07e7e3030307e303030d7
:400040007e3030307d081a7e7e3030307e3030307e3030307e3030307e3030307e3030307d07047e7e303030711062fa0062e38670ef50202850402850602841fefb5080b4
:400080004e55f80055f900711062e00a70ef62e338627105627505627905627d0562d10750004e62d30762d00062d50062d40071c07c041662d000500457140828533918f7
:4000c000750900284b5139800475090062e300082860d574a04b1875090008285339187509000828a01c53381875090008283f394739ffb0065dd57460d5187a38bfeb8fca
:40010000c9187509000828533850003f394739ffb0085dd57460d550007a38bfef188faa18711043e32070ef62e000711062e00b43e78070ef62e2007c0c4b8fff50107fef
:40014000303030303030303030303030303030303030303030303030303030303030303030303030303030303030303030303030303030303030303030303030303030307f
:40018000303030303030303030303030303030303030303030303030303030303030303020204761696e204f75743a2031203d200020204761696e205072653a2031203d32
:4001c000200020202d202033203d200020202d202032203d2000202020204d65732056616c75653a2031203d20000a0d506f742056616c7565203d20008c908d208e618f31
:40020000f02300210022002700250026002b0029002a0098d099409a619bf02f002d002e003300310032003700350036008485856086008720908591009200932094a1951f
:40024000949685972080a181b38205832c4300417f42004704450c4600793d7aa17b207800713d72a1732070007d017e097f147c009c009d519e209f3b3f003d003e00606e
:40028000e4660063576500e600e700d604b000b100b200b333b433b500b600b855b900ba10bb33bc33bd00be04c000c100c220c333c433c500c600c855c900ca30cb33cc72
:4002c00033cd00ce006c006d006e006f00ff202121752240240125152640282129352a402c212d652e403001311532403421353536404010410642404430453646403c0d2a
:400300003d013e4661006900600562356733683363006600d100d300d000d200e14ee200df19de00dd00e700ff71106200006201ff70ef6203ff6202007110620200620391
:400340000070ef62010071106204a46205fb70ef6207fb620604711062060062070070ef62050071106208f062090f70ef620b0f620a007110620a00620b0070ef620900c7
:400380007110620c00620d0070ef620f00620e007110620e00620f0070ef620d00711062100062110070ef621300621200711062120062130070ef6211007110621400622c
:4003c000150070ef621700621600711062160062170070ef621500711062180062190070ef621b00621a007110621a00621b0070ef6219007110621c00621d0070ef621fd0
:4004000000621e007110621e00621f0070ef621d0070ef7f171c5500007c04207c03297f1070ef500067500157f97c043b500167500257ce7c043b70ef207f380210084fa4
:4004400056fc00d00456fc01182070ef62e30010082839ffa01f4f48fc01a003711054fd18207509001008284f59fd610018207509008fd738fc703f71c07f43e1807f41d8
:40048000e17f7f71102101a007433c1070ef7f413cef70ef7f2901603f7f413ffe7f603d7f5d3f7f303132333435363738394142434445460867676767210fffe7900f18cd
:4004c000210fffe090087f4b9fea5b9fe77f493f10affc603d7f70bf60d35200a0069fee758ff8703f71c07f70bf62d3074f52fba01a7bfb52fc59fd60d35200493f10af5a
:40050000fc603d4f62d30777fd8fe4703f71c07f4f3dfa00b0063dfb00a01d1052fc59fd28493f10affc603d2007fd010ffc0017fb011ffa008fdb7f081028a00b9f8f20e6
:400540001875dff5748ff238fe7f500d9f80500a9f7c7f2103104f085d9f21fc2b00609f1820703f71c07f419ffc7f21034f085d7f21fc2b00607f18703f71c07f417ffc8f
:400580007f211c4f085d7f21e32b00607f18703f71c07f21034f085d7321fc2b00607318703f71c07f21fc4f085d712107480004b00e4170fe2b00607118703f71c07f272d
:4005c00000182b00607143700118703f71c07f4173fc7f21034f085d7b21fc2b00607b18703f71c07f21fc4f085d792107480004b00e4178fe2b00607918703f71c07f27cb
:4006000000182b00607943780118703f71c07f417bfc7f50018003500062d0002900a0062e002080042600df51006008703f71c07f62d00036002051006008703f71c07f80
:4006400062d00051002120a0035001703f71c07f50018003500062d0002900a0062e004080042600bf51006008703f71c07f62d00036004051006008703f71c07f62d0005d
:4006800051002140a0035001703f71c07f50018003500062d0002900a0062e0080800426007f51006008703f71c07f62d00036008051006008703f71c07f62d0005100217d
:4006c00080a0035001703f71c07f7f088008085ddd21fe60dd43de01187f085ddd21fe60dd187f62d00026017f62d00026027f43d6027f43d6017f41defe7f41d6fe7f4137
:40070000d6fd7f7f08105dd30849d610a00649d720b0eb49d708b07449d704b0be49d720b0dc470104b0147a03c0393c0300a00380062e010480042601fb2e021051046082
:40074000d358055dd8703f71805400703f71007605470104b01662d7101860d32018703f71c07e2e02202602ef76032601fb62d7001860d32018703f71c07e43d61062d7cb
:40078000101860d32018703f71c07e51022130a0072e024041d6ef5dd870f96d3100b04e2e0280dfd72602fb501408510660d35807703f71805200703f710060d87a08c0e3
:4007c00005760780092e02022602fe76081860d71860d32018703f71c07e49d702b0065004088fc82e02012e020426027f26027f62d7001860d32018703f71c07e2e024020
:4008000026027f41d6ef49d701a00641ddfe8efa1860d32018703f71c07e7d139b7e43df027f41dffd7f4343017f4143fe7f60415b60457f60425b60467f5d465c5d427f71
:400840004f38035d43085d42085d46085d405d4654015d425402500049f701a0035001540070fe4143fe1860461860421860431820703f71c07e5d405d465c5d427f5001cd
:400880008003500062d0002900a0062e001080042600ef51006008703f71c07f62d00036001051006008703f71c07f62d00051002110a0035001703f71c07f21034f085d06
:4008c0008321fc2b0060835d9321fc2b0060935d9721fc2b0060975d8721fc2b00608718703f71c07f4183fc4193fc4197fc4187fc7f211f4f085d8021e02b0060801870b3
:400900003f71c07f211f4f085d8121e02b00608118703f71c07f211f4f085d9021e02b00609018703f71c07f211f4f085d9221e02b00609218703f71c07f211f4f085d9415
:4009400021e02b00609418703f71c07f211f4f085d9521e02b00609518703f71c07f211f4f085d8421e02b00608418703f71c07f211f4f085d8621e02b00608618703f71fc
:40098000c07f2103570079c00564648ffa4f085d6021fc2b00606018703f71c07f7f7ffffefcf8f0e0c00102040810204076097e412ffe439a20439b1071014070fe085d82
:4009c0002c5d2e7873d0037609530b5109530a622dff432f01510c210fffc45309419bef419adf470a80b017510c210fffb808220aa00b181101530a550bff800218680a0f
:400a00006e0b680a6e0b182e0c10470dffa0177a0db0134133fe412ffe439a20439b1041e1df41e1f77e62d0004f2103085d9b21fc2b0029f0609b499a01a0055004530cfc
:400a400018703f71c07f419bfc7f62d000530d510c210f0107905a5d365309500012096753095d32622dff419bef419adf432f0543330143e12043e1087f4133fe412ffe1b
:400a8000439a20439b100841e1df41e1f7187f62d000510c21107f62d000260cef580a510b7f62d000580a510b7f62d000260cef7f62d000419afe9fc1550c003907d005a1
:400ac00050078007390dc003500d11072c0c01015c50016479bffd6232006036623124010060357ffffefcf8f0e0c001020408102040760e7e4123fe438e20438f1071017b
:400b00004070fe085d205d227873d003760e5310510e530f6221ff4323015111210fffc4530e418fef418edf470f80b0175111210fffb808220fa00b181101530f5510ffd7
:400b4000800218680f6e10680f6e10182e11104712ffa0177a12b0134127fe4123fe438e20438f1041e1fb41e1fe7e62d0004f2103085d8f21fc2b0029f0608f498e01a075
:400b8000055004531118703f71c07f418ffc7f62d00053125111210f0107905a5d2a530e5000120e67530e5d266221ff418fef418edf43230543270143e10443e1017f4126
:400bc00027fe4123fe438e20438f100841e1fb41e1fe187f62d000511121107f62d0002611ef580f51107f62d000580f51107f62d0002611ef7f62d000418efe9fc15511c7
:400c0000003907d00550078007390dc003500d11072c1101015c50016479bffd622600602a622524010060297f900c78bffc7f08193a7c010101010871105de070ef210782
:400c40003905d006ffe978bffe187f104f380456000096a87101107c065020560100560201560303977f835b107c0a8f62d000203900a01e107c0a9762d0005a3920018404
:400c800062d000536462d0005139090362d0005363107c0bd462d000203900a1cb107c0bdc62d0005a392008513962d000536918536a62d0005200533855390065386b39ae
:400cc00006385e0e3900513960d43e38533862d000516a08516962d00053371853365138210fa00b62d00068376e3678bff762d0005200533855390065386b3965386b3920
:400d000006383c0e3900513960d551373f3851363f385200533855390065386b3965386b395200533655370065366b3706365d0e3700513760d43e3653365138013c5334c1
:400d40005139090060d43e3453353e3453345136210fa00b62d00068356e3478bff762d00006383a0e3900513960d551353f3851343f385200533855390065386b396538c6
:400d80006b3965386b390638130e39005200533655370065366b3765366b3706363a0e3700513760d43e3653373e36533251375333473380a0095534ff5535ff800a62d0e9
:400dc0000055340055350062d000513960d43e3853313e3853303e38532f3e3816380402325332512f0a33533351300a34533451310a355335513960d551353f3851343f32
:400e00003851333f3851323f385200533855390065386b3965386b3965386b390638170e3900513960d43e3853353e3853343e3853333e3816380453320632010e33000e31
:400e400034000e3500513960d551353f3851343f3851333f3851323f3877003d0003d0081050017c0b8f2062d0003c6b00a015556b005600001050017c0b8f201050017c10
:400e80000a4a2062d0003c6500b0063c6600a13362d00055660055650062d000556800556700810e62d000516808516762d000533918533865386b3965386b3965386b390f
:400ec0005138011753365139090060d43e3653353e3653343e3653333e3653320638130e3900513960d43e3853313e3853303e38532f3e38532e51350851340851330851e7
:400f00003208513108513008512f08512e087c1447185336185337181838fc513653385137533962d000516808516762d000533718533665366b370636570e3700513760ac
:400f4000d551393f3651383f3662d000516808516762d000533918533865386b3965386b3965386b390638130e3900513960d550003f383f383f383f3862d0005168085109
:400f80006762d000533918533865386b3965386b3965386b390638170e3900513960d550003f383f383f383f3862d00076680e670062d0005168110351671900cee790097c
:400fc000909d8ca538fc208fff107c08822062d000516462d00012585157318062d000532d62d0005163318062d0001a2dd00b107c087e7c068d208006107c06912062d0c6
:4010000000516462d000125a5159318062d000532d62d0005163318062d0001a2dd00b107c087e7c0650208006107c06542062d000516462d000125c515b318062d000536c
:401040002d62d0005163318062d0001a2dd00b107c087e7c0613208006107c0617207f1050010850ea5c187c053820500008500a0862d0005163085164085000085050086e
:401080007c154338fa1050000850505c187c04d6201050010850d65c187c053820500008500a0862d0005157085158085000085050087c154338fa1050000850505c187c11
:4010c00004d6201050010850cc5c187c053820500008500a0862d000515908515a085000085050087c154338fa1050000850505c187c04d6201050010850c25c187c053833
:4011000020500008500a0862d000515b08515c085000085050087c154338fa1050000850505c187c04d6201050010850b15c187c053820500008500a0862d000515d62d0bf
:4011400000533855390065386b390638470e3900513960d43e3853385000085138085000085050087c154338fa1050000850505c187c04d6201050010850cc5c187c0538f7
:4011800020500008500a0862d000515f62d000533855390065386b390638470e3900513960d43e3853385000085138085000085050087c154338fa1050000850505c187c75
:4011c00004d6201050010850c25c187c053820500008500a0862d000516162d000533855390065386b390638470e3900513960d43e3853385000085138085000085050088f
:401200007c154338fa1050000850505c187c04d6201050010850a05c187c053820500008500a0862d000515e62d000533855390065386b390638470e3900513960d43e38e9
:4012400053385000085138085000085050087c154338fa1050000850505c187c04d6201050010850cc5c187c053820500008500a0862d000516062d00053385539006538ab
:401280006b390638470e3900513960d43e3853385000085138085000085050087c154338fa1050000850505c187c04d6201050010850c25c187c053820500008500a08623a
:4012c000d000516262d000533855390065386b390638470e3900513960d43e3853385000085138085000085050087c154338fa1050000850505c187c04d6207f1050037c15
:401300000a26201050037c0b6b7c099d201050037c08bb7c06ca201050037c05d3201050037c0593201050037c056b201050037c05537c06917c06547c06177c08827c049c
:401340007b201050007c0495201050007c09822062d000515d62d000533855390065386b390638460e3900513960d43e38107c05a52062d000515e62d00053385539006564
:40138000386b390638460e3900513960d43e38107c05e57c081e7c0826207f71c0085dd00862d000556b0162d00076660e65001860d0187e104f3802560100560000800d5e
:4013c0001050147c0c292077010f0000520113fc52fb318062d000532d520031801a2dcfe038fe207f104f3802107c06917c06547c061720560100560000107c068d2050ba
:40140000010850f4089fad38fe107c06917c06502050010850f4089f9b38fe107c06547c06132050010850f4089f8938fe107c06172077010f00005201110352003180193a
:4014400080cfb838fe207f104f380150003df980c0067c152b50c03df580c00c104b11044b7c152b318020087c14c8186ad0047c152b6ad0084b11044b7c152b38ff2070b8
:401480003f71c07f104f7c148f20703f71c07f5dd00862d0005000532c532d552b1066fc6cfb6b2c6b2d512c1bfa512d1bf9c009532d52fa1c2c77fc7a2bbfe3512c54fa7c
:4014c000512d54f91860d07f5dd00862d00051390850005339532d532c532b56002066fc6cfb6cfa6cf96b2b6b2c6b2d6b39512b1bf8512c1bf7512d1bf651391bf5c0117d
:40150000533952f8142b52f71c2c52f61c2d77fc7b00bfcb512b54f8512c54f7512d54f6513954f51853391860d07f37fcff77fc37fbff0ffb0037faff0ffa0037f9ff0f0f
:40154000f9007f104f380952fa540352f954023df900b02f3dfa00b02a62d00052fc533852fb60d550303f3852fc0101533852fb090060d550003f3852fc533852fb533986
:40158000819752fa110052f931801980d0293df700b0243df80ab01f56060162d00052037353385202735339513801015403513909005402800456060052fc540152fb54ee
:4015c0000062d00052f70852f8085202085203087c148438fe18533818533951385408513954075009130852073180532d50801a2dc02862d000520153385200533951388e
:4016000001015401513909005400520801305337513960d551373f38802662d0005201533852005339513801015401513909005400520801575337513960d551373f3852f2
:40164000f70852f80852020852030862d0007c148418540318540238fe3d0200bf643d0300bf5f3d0600a02062d0005201533852005339513801015401513909005400513e
:401680003960d5502d3f3862d0005201533852005339513801ff5401513909ff5400513960d550003f3852fc540552fb5404805462d00052055338520460d43e38540652b0
:4016c0000553385204533951380101540551390900540452015336520060d43e365337513960d551373f385201533852005339513801ff5401513909ff5400513960d552fa
:40170000063f385205130152041b00cfa462d00052fc533852fb533938f7207f00130018003a000c00460af80178023804180808100050000d005d0603030303030300634e
:401740000009ff0030303030303030303030303030303030303030303030303030303030303030303030303030303030303030303030303030303030303030303030303021
:401780003030303030303030303030303030303030303030303030303030303030303030303030303030303030303030303030303030303030303030303030303030303029
:4017c00030303030303030303030303030303030303030303030303030303030303030303030303030303030303030303030303030303030303030303030303030303030e9
:4018000030303030303030303030303030303030303030303030303030303030303030303030303030303030303030303030303030303030303030303030303030303030a8
:401840003030303030303030303030303030303030303030303030303030303030303030303030303030303030303030303030303030303030303030303030303030303068
:020000040010ea
:020000040020da
:02000000ccd260
:00000001ff
