:4000000080673030303030307e3030307e3030307e3030307e3030307e3030307e3030307d0ad07e7e3030307d0ad37e7d098b7e7e3030307d098e7e7e3030307e3030305f
:400040007e3030307d07f87e7e3030307e3030307e3030307e3030307e3030307e3030307d06e27e7e303030711062fa0062e38670ef50202850402850602841fefb5080fa
:400080004e55f80055f900711062e00a70ef62e338627105627505627905627d0562d10750004e62d30762d00062d50062d40071c07c03f462d000500357f2082853201856
:4000c000750900284b5120800475090062e300082860d574a04b1875090008285320187509000828a01c531f1875090008283f204720ffb0065dd57460d5187a1fbfeb8f60
:40010000c9187509000828531f50003f204720ffb0085dd57460d550007a1fbfef188faa18711043e32070ef62e000711062e00b43e78070ef62e2007c0c298fff50107f75
:40014000303030303030303030303030303030303030303030303030303030303030303030303030303030303030303030303030303030303030303030303030303030307f
:40018000303030303030303030303030303030303030303030303030303030303030303020202d202033203d200020202d202032203d2000202020204d65732056616c7529
:4001c000653a2031203d20000a0d506f742056616c7565203d20008c908d208e618ff02300210022002700250026002b0029002a0098d099409a619bf02f002d002e00339d
:4002000000310032003700350036008485856086008720908591009200932094a195949685972080a181b38205832c4300417f42004704450c4600791d7aa17b207800719c
:400240004d72a1732070007d017e097f147c009c009d519e209f3b3f003d003e0060e4660063576500e600e700d604b000b100b200b333b433b500b600b855b900ba10bb25
:4002800033bc33bd00be04c000c100c220c333c433c500c600c855c900ca30cb33cc33cd00ce006c006d006e006f00ff202121752240240125152640282129352a402c2139
:4002c0002d652e403001311532403421353536404010410642404430453646403c0d3d013e4661006900600562356733683363006600d100d300d000d200e14ee200df1934
:40030000de00dd00e700ff71106200006201ff70ef6203ff620200711062020062030070ef62010071106204a46205fb70ef6207fb620604711062060062070070ef620570
:400340000071106208f062090f70ef620b0f620a007110620a00620b0070ef6209007110620c00620d0070ef620f00620e007110620e00620f0070ef620d007110621000fc
:4003800062110070ef621300621200711062120062130070ef621100711062140062150070ef621700621600711062160062170070ef621500711062180062190070ef6209
:4003c0001b00621a007110621a00621b0070ef6219007110621c00621d0070ef621f00621e007110621e00621f0070ef621d0070ef7f11695500007c03fe7c03077f107025
:40040000ef500067500157d77c0419500167500257ac7c041970ef207f380210084f56fc00d00456fc01182070ef62e30010082839ffa01f4f48fc01a003711054fd1820ec
:400440007509001008284f59fd610018207509008fd738fc703f71c07f43e1807f41e17f7f71102101a007433c1070ef7f413cef70ef7f2901603f7f413ffe7f603d7f5d07
:400480003f7f303132333435363738394142434445460867676767210fffe7900f18210fffe090087f4b9fea5b9fe77f493f10affc603d7f70bf60d35200a0069fee758fc7
:4004c000f8703f71c07f70bf62d3074f52fba01a7bfb52fc59fd60d35200493f10affc603d4f62d30777fd8fe4703f71c07f4f3dfa00b0063dfb00a01d1052fc59fd28493e
:400500003f10affc603d2007fd010ffc0017fb011ffa008fdb7f081028a00b9f8f201875dff5748ff238fe7f500d9f80500a9f7c7f2103104f085d9f21fc2b00609f182025
:40054000703f71c07f419ffc7f21034f085d7f21fc2b00607f18703f71c07f417ffc7f211c4f085d7f21e32b00607f18703f71c07f21034f085d7321fc2b00607318703f6f
:4005800071c07f21fc4f085d712107480004b00e4170fe2b00607118703f71c07f2700182b00607143700118703f71c07f4173fc7f21034f085d7b21fc2b00607b18703f23
:4005c00071c07f21fc4f085d792107480004b00e4178fe2b00607918703f71c07f2700182b00607943780118703f71c07f417bfc7f50018003500062d0002900a0062e009d
:400600002080042600df51006008703f71c07f62d00036002051006008703f71c07f62d00051002120a0035001703f71c07f50018003500062d0002900a0062e004080042b
:400640002600bf51006008703f71c07f62d00036004051006008703f71c07f62d00051002140a0035001703f71c07f50018003500062d0002900a0062e0080800426007f8a
:4006800051006008703f71c07f62d00036008051006008703f71c07f62d00051002180a0035001703f71c07f7f088008085ddd21fe60dd43de01187f085ddd21fe60dd188f
:4006c0007f62d00026017f62d00026027f43d6027f43d6017f41defe7f41d6fe7f41d6fd7f7f08105dd30849d610a00649d720b0eb49d708b07449d704b0be49d720b0dcab
:40070000470104b0147a03c0393c0300a00380062e010480042601fb2e0210510460d358055dd8703f71805400703f71007605470104b01662d7101860d32018703f71c04b
:400740007e2e02202602ef76032601fb62d7001860d32018703f71c07e43d61062d7101860d32018703f71c07e51022130a0072e024041d6ef5dd870f96d3100b04e2e0261
:4007800080dfd72602fb501408510660d35807703f71805200703f710060d87a08c005760780092e02022602fe76081860d71860d32018703f71c07e49d702b006500408ba
:4007c0008fc82e02012e020426027f26027f62d7001860d32018703f71c07e2e024026027f41d6ef49d701a00641ddfe8efa1860d32018703f71c07e7d0ea87e43df027f18
:4008000041dffd7f4343017f4143fe7f60415b60457f60425b60467f5d465c5d427f4f38035d43085d42085d46085d405d4654015d425402500049f701a00350015400705f
:40084000fe4143fe1860461860421860431820703f71c07e5d405d465c5d427f50018003500062d0002900a0062e001080042600ef51006008703f71c07f62d000360010e9
:4008800051006008703f71c07f62d00051002110a0035001703f71c07f21034f085d8321fc2b0060835d9321fc2b0060935d9721fc2b0060975d8721fc2b00608718703f5b
:4008c00071c07f4183fc4193fc4197fc4187fc7f211f4f085d8021e02b00608018703f71c07f211f4f085d8121e02b00608118703f71c07f211f4f085d9021e02b00609011
:4009000018703f71c07f211f4f085d9221e02b00609218703f71c07f211f4f085d9421e02b00609418703f71c07f211f4f085d9521e02b00609518703f71c07f211f4f084e
:400940005d8421e02b00608418703f71c07f211f4f085d8621e02b00608618703f71c07f2103570079c00564648ffa4f085d6021fc2b00606018703f71c07f7f7ffffefc78
:40098000f8f0e0c00102040810204076097e412ffe439a20439b1071014070fe085d2c5d2e7873d0037609530b5109530a622dff432f01510c210fffc45309419bef419af9
:4009c000df470a80b017510c210fffb808220aa00b181101530a550bff800218680a6e0b680a6e0b182e0c10470dffa0177a0db0134133fe412ffe439a20439b1041e1df85
:400a000041e1f77e62d0004f2103085d9b21fc2b0029f0609b499a01a0055004530c18703f71c07f419bfc7f62d000530d510c210f0107905a5d36530950001209675309e6
:400a40005d32622dff419bef419adf432f0543330143e12043e1087f4133fe412ffe439a20439b100841e1df41e1f7187f62d000510c21107f62d000260cef580a510b7fa4
:400a800062d000580a510b7f62d000260cef7f62d000419afe9fc1550c003907d00550078007390dc003500d11072c0c01015c50016479bffd6232006036623124010060f6
:400ac000357ffffefcf8f0e0c001020408102040760e7e4123fe438e20438f1071014070fe085d205d227873d003760e5310510e530f6221ff4323015111210fffc4530ee2
:400b0000418fef418edf470f80b0175111210fffb808220fa00b181101530f5510ff800218680f6e10680f6e10182e11104712ffa0177a12b0134127fe4123fe438e204349
:400b40008f1041e1fb41e1fe7e62d0004f2103085d8f21fc2b0029f0608f498e01a0055004531118703f71c07f418ffc7f62d00053125111210f0107905a5d2a530e5000e8
:400b8000120e67530e5d266221ff418fef418edf43230543270143e10443e1017f4127fe4123fe438e20438f100841e1fb41e1fe187f62d000511121107f62d0002611ef26
:400bc000580f51107f62d000580f51107f62d0002611ef7f62d000418efe9fc15511003907d00550078007390dc003500d11072c1101015c50016479bffd622600602a622f
:400c00002524010060297f900c78bffc7f08193a7c010101010871105de070ef21073905d006ffe978bffe187f104f380456000092147101107c062e205601005602015635
:400c4000030392a6809b107c0a6d62d000203900a01e107c0a7562d0005a2020018462d000532862d0005120090362d0005327107c0bb262d000203900a03f107c0bba6205
:400c8000d000531f5a20205200531d551e00651d6b1e061d210e1e00511e60d551203f1d511f3f1d77003d0003d00f1052007c0960201050017c0b6d2062d0003c2b00a0c0
:400cc00020552b0056000090b41052007c0960201050017c0b6d201050017c0a282090078f6538fc208fff107c08602062d000512862d00012225121318062d000531c62f7
:400d0000d0005127318062d0001a1cd00b107c085c7c066b208006107c066f2062d000512862d00012245123318062d000531c62d0005127318062d0001a1cd00b107c08c8
:400d40005c7c062e208006107c06322062d000512862d00012265125318062d000531c62d0005127318062d0001a1cd00b107c085c7c05f1208006107c05f5207f105001d4
:400d80000850c85c187c051620500008500a0862d0005127085128085000085013087c0f9038fa1050000850135c187c04b4201050010850b45c187c051620500008500a0e
:400dc0000862d0005121085122085000085013087c0f9038fa1050000850135c187c04b4201050010850aa5c187c051620500008500a0862d0005123085124085000085006
:400e000013087c0f9038fa1050000850135c187c04b4201050010850a05c187c051620500008500a0862d0005125085126085000085013087c0f9038fa1050000850135c13
:400e4000187c04b4207f1050037c0a04201050037c0b497c097b201050037c08997c06a8201050037c05b1201050037c0571201050037c0549201050037c05317c066f7c64
:400e800006327c05f57c08607c0459201050007c0473201050007c0960201050f87c05837c07fc7c0804207f71c0085dd00862d000552b011860d0187e104f3802560100de
:400ec000560000800d1050147c0c072077010f0000520113fc52fb318062d000531c520031801a1ccfe038fe207f104f3802107c066f7c06327c05f5205601005600001006
:400f00007c066b2050010850f4089fad38fe107c066f7c062e2050010850f4089f9b38fe107c06327c05f12050010850f4089f8938fe107c05f52077010f000052011103aa
:400f4000520031801980cfb838fe207f104f7c0f5720703f71c07f5dd00862d0005000531b531c551a1066fc6cfb6b1b6b1c511b1bfa511c1bf9c009531c52fa1c1b77fca0
:400f80007a1abfe3511b54fa511c54f91860d07f104f380952fa540352f954023df900b02f3dfa00b02a62d00052fc531f52fb60d550303f1f52fc0101531f52fb090060ec
:400fc000d550003f1f52fc531f52fb5320819752fa110052f931801980d0293df700b0243df80ab01f56060162d000520373531f5202735320511f0101540351200900543b
:4010000002800456060052fc540152fb540062d00052f70852f8085202085203087c0f4c38fe18531f185320511f5408512054075009130852073180531c50801a1cc02867
:4010400062d0005201531f52005320511f0101540151200900540052080130531e512060d5511e3f1f802662d0005201531f52005320511f0101540151200900540052085f
:401080000157531e512060d5511e3f1f52f70852f80852020852030862d0007c0f4c18540318540238fe3d0200bf643d0300bf5f3d0600a02062d0005201531f52005320fd
:4010c000511f01015401512009005400512060d5502d3f1f62d0005201531f52005320511f01ff5401512009ff5400512060d550003f1f52fc540552fb5404805462d000e6
:401100005205531f520460d43e1f54065205531f52045320511f010154055120090054045201531d520060d43e1d531e512060d5511e3f1f5201531f52005320511f01fff4
:401140005401512009ff5400512060d552063f1f5205130152041b00cfa462d00052fc531f52fb532038f7207f001300070021000bff00303030303030303030303030306d
:40118000303030303030303030303030303030303030303030303030303030303030303030303030303030303030303030303030303030303030303030303030303030302f
:4011c00030303030303030303030303030303030303030303030303030303030303030303030303030303030303030303030303030303030303030303030303030303030ef
:4012000030303030303030303030303030303030303030303030303030303030303030303030303030303030303030303030303030303030303030303030303030303030ae
:40124000303030303030303030303030303030303030303030303030303030303030303030303030303030303030303030303030303030303030303030303030303030306e
:020000040010ea
:020000040020da
:0200000037ddea
:00000001ff
