:4000000080673030303030307e3030307e3030307e3030307e3030307e3030307e3030307d0b037e7e3030307d0b067e7d09be7e7e3030307d09c17e7e3030307e30303091
:400040007e3030307d082b7e7e3030307e3030307e3030307e3030307e3030307e3030307d07157e7e303030711062fa0062e38670ef50202850402850602841fefb508092
:400080004e55f80055f900711062e00a70ef62e338627105627505627905627d0562d10750004e62d30762d00062d50062d40071c07c042762d000500457250828533718d7
:4000c000750900284b5137800475090062e300082860d574a04b1875090008285337187509000828a01c53361875090008283f374737ffb0065dd57460d5187a36bfeb8fd6
:40010000c9187509000828533650003f374737ffb0085dd57460d550007a36bfef188faa18711043e32070ef62e000711062e00b43e78070ef62e2007c0c5c8fff50107fe6
:40014000303030303030303030303030303030303030303030303030303030303030303030303030303030303030303030303030303030303030303030303030303030307f
:40018000303030303030303030303030303030303030303030303030303030303030303020202d2d4d657356616c75655b506f7274496e64785d5b325d203d2000202047a5
:4001c00061696e204f75743a2031203d200020204761696e205072653a2031203d200020202d202033203d200020202d202032203d2000202020204d65732056616c7565de
:400200003a2031203d20000a0d008c908d208e618ff02300210022002700250026002b0029002a0098d099409a619bf02f002d002e00330031003200370035003600848580
:40024000856086008720908591009200932094a195949685972080a181b38205832c4300417f42004704450c4600791d7aa17b207800714d72a1732070007d017e097f146f
:400280007c009c009d519e209f3b3f003d003e0060e4660063576500e600e700d604b000b100b200b333b433b500b600b855b900ba10bb33bc33bd00be04c000c100c220dc
:4002c000c333c433c500c600c855c900ca30cb33cc33cd00ce006c006d006e006f00ff202121752240240125152640282129352a402c212d652e403001311532403421358a
:400300003536404010410642404430453646403c0d3d013e4661006900600562356733683363006600d100d300d000d200e14ee200df19de00dd00e700ff71106200006280
:4003400001ff70ef6203ff620200711062020062030070ef62010071106204a46205fb70ef6207fb620604711062060062070070ef62050071106208f062090f70ef620bf5
:400380000f620a007110620a00620b0070ef6209007110620c00620d0070ef620f00620e007110620e00620f0070ef620d00711062100062110070ef6213006212007110a1
:4003c00062120062130070ef621100711062140062150070ef621700621600711062160062170070ef621500711062180062190070ef621b00621a007110621a00621b00f4
:4004000070ef6219007110621c00621d0070ef621f00621e007110621e00621f0070ef621d0070ef7f18b25500007c04317c033a7f1070ef5000675002570a7c044c5001c8
:4004400067500257df7c044c70ef207f380210084f56fc00d00456fc01182070ef62e30010082839ffa01f4f48fc01a003711054fd18207509001008284f59fd6100182059
:400480007509008fd738fc703f71c07f43e1807f41e17f7f71102101a007433c1070ef7f413cef70ef7f2901603f7f413ffe7f603d7f5d3f7f3031323334353637383941b7
:4004c00042434445460867676767210fffe7900f18210fffe090087f4b9fea5b9fe77f493f10affc603d7f70bf60d35200a0069fee758ff8703f71c07f70bf62d3074f5230
:40050000fba01a7bfb52fc59fd60d35200493f10affc603d4f62d30777fd8fe4703f71c07f4f3dfa00b0063dfb00a01d1052fc59fd28493f10affc603d2007fd010ffc0099
:4005400017fb011ffa008fdb7f081028a00b9f8f201875dff5748ff238fe7f500d9f80500a9f7c7f2103104f085d9f21fc2b00609f1820703f71c07f419ffc7f21034f0877
:400580005d7f21fc2b00607f18703f71c07f417ffc7f211c4f085d7f21e32b00607f18703f71c07f21034f085d7321fc2b00607318703f71c07f21fc4f085d712107480002
:4005c00004b00e4170fe2b00607118703f71c07f2700182b00607143700118703f71c07f4173fc7f21034f085d7b21fc2b00607b18703f71c07f21fc4f085d7921074800db
:4006000004b00e4178fe2b00607918703f71c07f2700182b00607943780118703f71c07f417bfc7f50018003500062d0002900a0062e002080042600df51006008703f7144
:40064000c07f62d00036002051006008703f71c07f62d00051002120a0035001703f71c07f50018003500062d0002900a0062e004080042600bf51006008703f71c07f620e
:40068000d00036004051006008703f71c07f62d00051002140a0035001703f71c07f50018003500062d0002900a0062e0080800426007f51006008703f71c07f62d0003629
:4006c000008051006008703f71c07f62d00051002180a0035001703f71c07f7f088008085ddd21fe60dd43de01187f085ddd21fe60dd187f62d00026017f62d00026027f9f
:4007000043d6027f43d6017f41defe7f41d6fe7f41d6fd7f7f08105dd30849d610a00649d720b0eb49d708b07449d704b0be49d720b0dc470104b0147a03c0393c0300a035
:400740000380062e010480042601fb2e0210510460d358055dd8703f71805400703f71007605470104b01662d7101860d32018703f71c07e2e02202602ef76032601fb628e
:40078000d7001860d32018703f71c07e43d61062d7101860d32018703f71c07e51022130a0072e024041d6ef5dd870f96d3100b04e2e0280dfd72602fb501408510660d3b4
:4007c0005807703f71805200703f710060d87a08c005760780092e02022602fe76081860d71860d32018703f71c07e49d702b0065004088fc82e02012e020426027f26023e
:400800007f62d7001860d32018703f71c07e2e024026027f41d6ef49d701a00641ddfe8efa1860d32018703f71c07e7d15a27e43df027f41dffd7f4343017f4143fe7f605e
:40084000415b60457f60425b60467f5d465c5d427f4f38035d43085d42085d46085d405d4654015d425402500049f701a0035001540070fe4143fe1860461860421860436f
:400880001820703f71c07e5d405d465c5d427f50018003500062d0002900a0062e001080042600ef51006008703f71c07f62d00036001051006008703f71c07f62d00051c1
:4008c000002110a0035001703f71c07f21034f085d8321fc2b0060835d9321fc2b0060935d9721fc2b0060975d8721fc2b00608718703f71c07f4183fc4193fc4197fc4161
:4009000087fc7f211f4f085d8021e02b00608018703f71c07f211f4f085d8121e02b00608118703f71c07f211f4f085d9021e02b00609018703f71c07f211f4f085d922107
:40094000e02b00609218703f71c07f211f4f085d9421e02b00609418703f71c07f211f4f085d9521e02b00609518703f71c07f211f4f085d8421e02b00608418703f71c043
:400980007f211f4f085d8621e02b00608618703f71c07f2103570079c00564648ffa4f085d6021fc2b00606018703f71c07f7f7ffffefcf8f0e0c00102040810204076099b
:4009c0007e412ffe439a20439b1071014070fe085d2c5d2e7873d0037609530b5109530a622dff432f01510c210fffc45309419bef419adf470a80b017510c210fffb8087c
:400a0000220aa00b181101530a550bff800218680a6e0b680a6e0b182e0c10470dffa0177a0db0134133fe412ffe439a20439b1041e1df41e1f77e62d0004f2103085d9bcb
:400a400021fc2b0029f0609b499a01a0055004530c18703f71c07f419bfc7f62d000530d510c210f0107905a5d365309500012096753095d32622dff419bef419adf432fce
:400a80000543330143e12043e1087f4133fe412ffe439a20439b100841e1df41e1f7187f62d000510c21107f62d000260cef580a510b7f62d000580a510b7f62d000260ca5
:400ac000ef7f62d000419afe9fc1550c003907d00550078007390dc003500d11072c0c01015c50016479bffd6232006036623124010060357ffffefcf8f0e0c00102040845
:400b0000102040760e7e4123fe438e20438f1071014070fe085d205d227873d003760e5310510e530f6221ff4323015111210fffc4530e418fef418edf470f80b017511179
:400b4000210fffb808220fa00b181101530f5510ff800218680f6e10680f6e10182e11104712ffa0177a12b0134127fe4123fe438e20438f1041e1fb41e1fe7e62d0004f9a
:400b80002103085d8f21fc2b0029f0608f498e01a0055004531118703f71c07f418ffc7f62d00053125111210f0107905a5d2a530e5000120e67530e5d266221ff418fefd7
:400bc000418edf43230543270143e10443e1017f4127fe4123fe438e20438f100841e1fb41e1fe187f62d000511121107f62d0002611ef580f51107f62d000580f51107fd2
:400c000062d0002611ef7f62d000418efe9fc15511003907d00550078007390dc003500d11072c1101015c50016479bffd622600602a622524010060297f900c78bffc7f0e
:400c400008193a7c010101010871105de070ef21073905d006ffe978bffe187f104f38037c15037101107c0661205600005601015602037c160381f1107c0aa062d0002039
:400c80003900a01e107c0aa862d0005a3720018462d000534e62d0005137090362d000534d62d0005002124c50001a4bd18662d000554c00554b001050017c0ba020107c97
:400cc0000be562d000203900aff5107c0bed62d00053365a372062d000515162d00053345000085134085000085006087c16a938fc51315334513053350634170e35005157
:400d00003560d551373f3451363f3462d000515162d00053365000085136085000085006087c16a938fc513153365130533762d000515162d000533455350065346b35064d
:400d400034400e3500513560d43e3453345136011753325137090060d43e3253333e3253325134210fa00b62d00068336e3278bff762d0000636150e3700513760d5513331
:400d80003f3651323f3662d000515162d00053365000085136085000085006087c16a938fc513153365130533762d000515162d000533455350065346b3506343f0e350009
:400dc000513560d43e3453345136011553325137090060d43e3253333e3253325134210fa00b62d00068336e3278bff762d0000636130e3700513760d551333f3651323f35
:400e00003662d000765150023a51d00762d00055510062d0005537075a3662d000515162d0000236533650000a3760d43e36107c09932062d0003c5200a00b5552001050e8
:400e4000017c0a5b2062d0005009124a50001a49d01762d000554a0055490062d000554c00554b0093c2932a8e0f38fd208fff62d000515162d000533650000851360850b5
:400e800000085006087c16a938fc51315336513053370636170e3700513760d43e3653373e365336508a123651373180533150821a31d08b62d000515162d0005336553786
:400ec0000065366b370636400e3700513760d43e36533750003a37d06662d000515162d000533655370065366b370636400e3700513760d43e367a3653351635015137608e
:400f0000d551353f3662d000515162d000533655370065366b370636400e3700513760d43e36533655370065366b370636250e3700513760d43e36107c05f620825462d0c1
:400f400000515162d00053365000085136085000085006087c16a938fc51315336513053370636150e3700513760d43e3653373e365336508a123651373180533150821ada
:400f800031d08b62d000515162d000533655370065366b3706363f0e3700513760d43e36533750003a37d06662d000515162d000533655370065366b3706363f0e37005173
:400fc0003760d43e367a365335163501513760d551353f3662d000515162d000533655370065366b3706363f0e3700513760d43e36533655370065366b370636250e370096
:40100000513760d43e36107c05b620818562d000515162d00053365000085136085000085006087c16a938fc51315336513053370636170e3700513760d43e3653373e369c
:401040001164513731801980d08762d000515162d000533655370065366b370636400e3700513760d43e363904d06662d000515162d000533655370065366b370636400e34
:401080003700513760d43e367a365335063501513760d551353f3662d000515162d000533655370065366b370636400e3700513760d43e36533655370065366b37063625a1
:4010c0000e3700513760d43e36107c05f62080c262d000515162d00053365000085136085000085006087c16a938fc51315336513053370636150e3700513760d43e3653c8
:40110000373e361164513731801980d08562d000515162d000533655370065366b3706363f0e3700513760d43e363904d06462d000515162d000533655370065366b370651
:40114000363f0e3700513760d43e367a365335063501513760d551353f3662d000515162d000533655370065366b3706363f0e3700513760d43e36533655370065366b37bf
:401180000636250e3700513760d43e36107c05b6207f107c08932062d000514e62d00012145113318062d000533162d000514d318062d0001a31d00b107c088f7c069e20fc
:4011c0008006107c06a22062d000514e62d000121a5119318062d000533162d000514d318062d0001a31d00b107c088f7c0661208006107c06652062d000514e62d0001264
:4012000020511f318062d000533162d000514d318062d0001a31d00b107c088f7c0624208006107c0628207f1050020850075c187c0549201050010850f35c187c054920ed
:40124000500008500a0862d0005113085114085000085038087c16d938fa1050000850385c187c04e7201050010850e95c187c054920500008500a0862d000511908511a70
:40128000085000085038087c16d938fa1050000850385c187c04e7201050010850df5c187c054920500008500a0862d000511f085120085000085038087c16d938fa1050fe
:4012c000000850385c187c04e7201050010850ce5c187c054920500008500a0862d000513f62d000533655370065366b370636260e3700513760d43e36533650000851363f
:40130000085000085038087c16d938fa1050000850385c187c04e7201050010850e95c187c054920500008500a0862d000514162d000533655370065366b370636260e378c
:4013400000513760d43e3653365000085136085000085038087c16d938fa1050000850385c187c04e7201050010850df5c187c054920500008500a0862d000514362d000b5
:40138000533655370065366b370636260e3700513760d43e3653365000085136085000085038087c16d938fa1050000850385c187c04e7201050010850bd5c187c05492050
:4013c000500008500a0862d000514062d000533655370065366b370636260e3700513760d43e3653365000085136085000085038087c16d938fa1050000850385c187c043c
:40140000e7201050010850e95c187c054920500008500a0862d000514262d000533655370065366b370636260e3700513760d43e3653365000085136085000085038087cf7
:4014400016d938fa1050000850385c187c04e7201050010850df5c187c054920500008500a0862d000514462d000533655370065366b370636260e3700513760d43e36533b
:40148000365000085136085000085038087c16d938fa1050000850385c187c04e7201050010850a05c187c054920500008500a0862d000515162d0005336500008513608b8
:4014c0005000085006087c16a938fc51315336513053370636170e3700513760d43e3653373e3653365137085136085000085038087c16d938fa1050000850385c187c04da
:40150000e7207f1050037c0a37201050037c0b7c7c09ae201050037c08cc7c06db201050037c05e4201050037c05a4201050037c057c201050037c05647c06a27c06657c1d
:4015400006287c08937c048c201050007c04a6201050007c09932062d000513f62d000533655370065366b370636250e3700513760d43e36107c05b62062d000514062d044
:4015800000533655370065366b370636250e3700513760d43e36107c05f67c082f7c0837207f71c0085dd00862d00055520162d000764a0e490062d000764c0e4b0062d05f
:4015c000000648010e47000e46000e45001860d0187e104f3802560100560000800d1050147c0c3a2077010f0000520113fc52fb318062d0005331520031801a31cfe038c7
:40160000fe207f104f3802107c06a27c06657c062820560100560000107c069e2050010850f4089fad38fe107c06a27c06612050010850f4089f9b38fe107c06657c062482
:401640002050010850f4089f8938fe107c06282077010f000052011103520031801980cfb838fe207f104f7c167020703f71c07f5dd00862d000500053305331552f1066ef
:40168000fc6cfb6b306b3151301bfa51311bf9c009533152fa1c3077fc7a2fbfe3513054fa513154f91860d07f104f5dd00862d000500053315330552f106ff96ffad00901
:4016c00052fc043152fb0c3066fc6cfb7a2fbfeb1860d020703f71c07f104f380952fa540352f954023df900b02f3dfa00b02a62d00052fc533652fb60d550303f3652fc23
:401700000101533652fb090060d550003f3652fc533652fb5337819752fa110052f931801980d0293df700b0243df80ab01f56060162d0005203735336520273533751364f
:4017400001015403513709005402800456060052fc540152fb540062d00052f70852f8085202085203087c166538fe18533618533751365408513754075009130852073143
:4017800080533150801a31c02862d0005201533652005337513601015401513709005400520801305335513760d551353f36802662d000520153365200533751360101543d
:4017c00001513709005400520801575335513760d551353f3652f70852f80852020852030862d0007c166518540318540238fe3d0200bf643d0300bf5f3d0600a02062d084
:40180000005201533652005337513601015401513709005400513760d5502d3f3662d0005201533652005337513601ff5401513709ff5400513760d550003f3652fc5405ab
:4018400052fb5404805462d00052055336520460d43e365406520553365204533751360101540551370900540452015334520060d43e345335513760d551353f3652015342
:401880003652005337513601ff5401513709ff5400513760d552063f365205130152041b00cfa462d00052fc533652fb533738f7207f0013001200250af8017802380418b4
:4018c00008081000380007003f060202020202020045000eff0030303030303030303030303030303030303030303030303030303030303030303030303030303030303006
:4019000030303030303030303030303030303030303030303030303030303030303030303030303030303030303030303030303030303030303030303030303030303030a7
:401940003030303030303030303030303030303030303030303030303030303030303030303030303030303030303030303030303030303030303030303030303030303067
:401980003030303030303030303030303030303030303030303030303030303030303030303030303030303030303030303030303030303030303030303030303030303027
:4019c00030303030303030303030303030303030303030303030303030303030303030303030303030303030303030303030303030303030303030303030303030303030e7
:020000040010ea
:020000040020da
:02000000eb36dd
:00000001ff
