:4000000080673030303030307e3030307e3030307e3030307e3030307e3030307e3030307d0ada7e7e3030307d0add7e7d09957e7e3030307d09987e7e3030307e30303037
:400040007e3030307d08027e7e3030307e3030307e3030307e3030307e3030307e3030307d06ec7e7e303030711062fa0062e38670ef50202850402850602841fefb5080e5
:400080004e55f80055f900711062e00a70ef62e338627105627505627905627d0562d10750004e62d30762d00062d50062d40071c07c03fe62d000500357fc082853291839
:4000c000750900284b5129800475090062e300082860d574a04b1875090008285329187509000828a01c53281875090008283f294729ffb0065dd57460d5187a28bfeb8f2a
:40010000c9187509000828532850003f294729ffb0085dd57460d550007a28bfef188faa18711043e32070ef62e000711062e00b43e78070ef62e2007c0c338fff50107f47
:40014000303030303030303030303030303030303030303030303030303030303030303030303030303030303030303030303030303030303030303030303030303030307f
:40018000303030303030303030303030303030303030303030303030303030303030303020204761696e203d200020202d202033203d200020202d202032203d200020200a
:4001c00020204d65732056616c75653a2031203d20000a0d506f742056616c7565203d20008c908d208e618ff02300210022002700250026002b0029002a0098d099409a29
:40020000619bf02f002d002e003300310032003700350036008485856086008720908591009200932094a195949685972080a181b38205832c4300417f42004704450c4628
:4002400000791d7aa17b207800710d72a1732070017d017e097f147c009c009d519e209f3b3f003d003e0060e4660063576500e600e700d604b000b100b200b333b433b530
:4002800000b600b855b900ba10bb33bc33bd00be04c000c100c220c333c433c500c600c855c900ca30cb33cc33cd00ce006c006d006e006f00ff20212175224024012515fc
:4002c0002640282129352a402c212d652e403001311532403421353536404010410642404430453646403c0d3d013e46610069006005623d6733683363006600d100d30013
:40030000d000d200e14ee200df19de00dd00e700ff71106200006201ff70ef6203ff620200711062020062030070ef62010071106204a46205fb70ef6207fb62060471105c
:4003400062060062070070ef62050071106208f062090f70ef620b0f620a007110620a00620b0070ef6209007110620c00620d0070ef620f00620e007110620e00620f0026
:4003800070ef620d00711062100062110070ef621300621200711062120062130070ef621100711062140062150070ef621700621600711062160062170070ef621500710e
:4003c0001062180062190070ef621b00621a007110621a00621b0070ef6219007110621c00621d0070ef621f00621e007110621e00621f0070ef621d0070ef7f12f25500d7
:40040000007c04087c03117f1070ef500067500157e17c0423500167500257b67c042370ef207f380210084f56fc00d00456fc01182070ef62e30010082839ffa01f4f4857
:40044000fc01a003711054fd18207509001008284f59fd610018207509008fd738fc703f71c07f43e1807f41e17f7f71102101a007433c1070ef7f413cef70ef7f29016091
:400480003f7f413ffe7f603d7f5d3f7f303132333435363738394142434445460867676767210fffe7900f18210fffe090087f4b9fea5b9fe77f493f10affc603d7f70bf4f
:4004c00060d35200a0069fee758ff8703f71c07f70bf62d3074f52fba01a7bfb52fc59fd60d35200493f10affc603d4f62d30777fd8fe4703f71c07f4f3dfa00b0063dfb64
:4005000000a01d1052fc59fd28493f10affc603d2007fd010ffc0017fb011ffa008fdb7f081028a00b9f8f201875dff5748ff238fe7f500d9f80500a9f7c7f2103104f08be
:400540005d9f21fc2b00609f1820703f71c07f419ffc7f21034f085d7f21fc2b00607f18703f71c07f417ffc7f211c4f085d7f21e32b00607f18703f71c07f21034f085d49
:400580007321fc2b00607318703f71c07f21fc4f085d712107480004b00e4170fe2b00607118703f71c07f2700182b00607143700118703f71c07f4173fc7f21034f085d33
:4005c0007b21fc2b00607b18703f71c07f21fc4f085d792107480004b00e4178fe2b00607918703f71c07f2700182b00607943780118703f71c07f417bfc7f500180035067
:400600000062d0002900a0062e002080042600df51006008703f71c07f62d00036002051006008703f71c07f62d00051002120a0035001703f71c07f50018003500062d0bd
:40064000002900a0062e004080042600bf51006008703f71c07f62d00036004051006008703f71c07f62d00051002140a0035001703f71c07f50018003500062d000290046
:40068000a0062e0080800426007f51006008703f71c07f62d00036008051006008703f71c07f62d00051002180a0035001703f71c07f7f088008085ddd21fe60dd43de015f
:4006c000187f085ddd21fe60dd187f62d00026017f62d00026027f43d6027f43d6017f41defe7f41d6fe7f41d6fd7f7f08105dd30849d610a00649d720b0eb49d708b074bc
:4007000049d704b0be49d720b0dc470104b0147a03c0393c0300a00380062e010480042601fb2e0210510460d358055dd8703f71805400703f71007605470104b01662d760
:40074000101860d32018703f71c07e2e02202602ef76032601fb62d7001860d32018703f71c07e43d61062d7101860d32018703f71c07e51022130a0072e024041d6ef5dfb
:40078000d870f96d3100b04e2e0280dfd72602fb501408510660d35807703f71805200703f710060d87a08c005760780092e02022602fe76081860d71860d32018703f711f
:4007c000c07e49d702b0065004088fc82e02012e020426027f26027f62d7001860d32018703f71c07e2e024026027f41d6ef49d701a00641ddfe8efa1860d32018703f7138
:40080000c07e7d10297e43df027f41dffd7f4343017f4143fe7f60415b60457f60425b60467f5d465c5d427f4f38035d43085d42085d46085d405d4654015d425402500043
:4008400049f701a0035001540070fe4143fe1860461860421860431820703f71c07e5d405d465c5d427f50018003500062d0002900a0062e001080042600ef510060087057
:400880003f71c07f62d00036001051006008703f71c07f62d00051002110a0035001703f71c07f21034f085d8321fc2b0060835d9321fc2b0060935d9721fc2b0060975d71
:4008c0008721fc2b00608718703f71c07f4183fc4193fc4197fc4187fc7f211f4f085d8021e02b00608018703f71c07f211f4f085d8121e02b00608118703f71c07f211ff4
:400900004f085d9021e02b00609018703f71c07f211f4f085d9221e02b00609218703f71c07f211f4f085d9421e02b00609418703f71c07f211f4f085d9521e02b006095fc
:4009400018703f71c07f211f4f085d8421e02b00608418703f71c07f211f4f085d8621e02b00608618703f71c07f2103570079c00564648ffa4f085d6021fc2b00606018c0
:40098000703f71c07f7f7ffffefcf8f0e0c00102040810204076097e412ffe439a20439b1071014070fe085d2c5d2e7873d0037609530b5109530a622dff432f01510c2177
:4009c0000fffc45309419bef419adf470a80b017510c210fffb808220aa00b181101530a550bff800218680a6e0b680a6e0b182e0c10470dffa0177a0db0134133fe412f9b
:400a0000fe439a20439b1041e1df41e1f77e62d0004f2103085d9b21fc2b0029f0609b499a01a0055004530c18703f71c07f419bfc7f62d000530d510c210f0107905a5dbc
:400a4000365309500012096753095d32622dff419bef419adf432f0543330143e12043e1087f4133fe412ffe439a20439b100841e1df41e1f7187f62d000510c21107f6212
:400a8000d000260cef580a510b7f62d000580a510b7f62d000260cef7f62d000419afe9fc1550c003907d00550078007390dc003500d11072c0c01015c50016479bffd62a8
:400ac00032006036623124010060357ffffefcf8f0e0c001020408102040760e7e4123fe438e20438f1071014070fe085d205d227873d003760e5310510e530f6221ff43dc
:400b000023015111210fffc4530e418fef418edf470f80b0175111210fffb808220fa00b181101530f5510ff800218680f6e10680f6e10182e11104712ffa0177a12b0136b
:400b40004127fe4123fe438e20438f1041e1fb41e1fe7e62d0004f2103085d8f21fc2b0029f0608f498e01a0055004531118703f71c07f418ffc7f62d00053125111210f16
:400b80000107905a5d2a530e5000120e67530e5d266221ff418fef418edf43230543270143e10443e1017f4127fe4123fe438e20438f100841e1fb41e1fe187f62d0005115
:400bc0001121107f62d0002611ef580f51107f62d000580f51107f62d0002611ef7f62d000418efe9fc15511003907d00550078007390dc003500d11072c1101015c500123
:400c00006479bffd622600602a622524010060297f900c78bffc7f08193a7c010101010871105de070ef21073905d006ffe978bffe187f104f3804560000938b7101107c0a
:400c4000063820560100560201560303942581c4107c0a7762d000203900a13f107c0a7f62d0005a2920018462d000534062d0005129090362d000533f514011c8513f31b9
:400c8000801980d00762d00055330062d000514011c8513f31801980c01662d00051401190513f31801981d00762d00055330162d00051401190513f31801981c01662d026
:400cc0000051401158513f31801982d00762d00055330262d00051401158513f31801982c01662d00051401120513f31801983d00762d00055330362d00051401120513fc4
:400d000031801983c01662d000514011e8513f31801983d00762d00055330462d000514011e8513f31801983c01662d000514011b0513f31801984d00762d0005533056299
:400d4000d000514011b0513f31801984c01662d00051401178513f31801985d00762d00055330662d00051401178513f31801985c00762d00055330762d000513362d00040
:400d8000532855290065286b290628130e2900512960d43e28107c058d20107c0bbc62d000203900a038107c0bc462d00053285a29205200532655270065266b2706263727
:400dc0000e2700512760d551293f2651283f2677003d0003d0081050017c0b772062d0003c4300a0175543005600001050017c0b77201050017c0a3220901f62d0003c3dde
:400e000000b0063c3e00a00c62d000553e00553d00909d8e3c38fc208fff107c086a2062d000514062d00012385137318062d000532562d000513f318062d0001a25d00ba7
:400e4000107c08667c0675208006107c06792062d000514062d000123a5139318062d000532562d000513f318062d0001a25d00b107c08667c0638208006107c063c206221
:400e8000d000514062d000123c513b318062d000532562d000513f318062d0001a25d00b107c08667c05fb208006107c05ff207f1050010850d25c187c05202050000850f8
:400ec0000a0862d000513f08514008500008502a087c111938fa10500008502a5c187c04be201050010850be5c187c052020500008500a0862d00051370851380850000806
:400f0000502a087c111938fa10500008502a5c187c04be201050010850b45c187c052020500008500a0862d000513908513a08500008502a087c111938fa10500008502a5c
:400f40005c187c04be201050010850aa5c187c052020500008500a0862d000513b08513c08500008502a087c111938fa10500008502a5c187c04be201050010850a05c18bf
:400f80007c052020500008500a0862d000513362d000532855290065286b290628140e2900512960d43e285328500008512808500008502a087c111938fa10500008502a3f
:400fc0005c187c04be207f1050037c0a0e201050037c0b537c0985201050037c08a37c06b2201050037c05bb201050037c057b201050037c0553201050037c053b7c067995
:401000007c063c7c05ff7c086a7c0463201050007c047d201050007c096a2010500c7c058d7c08067c080e207f71c0085dd00862d00055430162d000763e0e3d001860d0ae
:40104000187e104f3802560100560000800d1050147c0c112077010f0000520113fc52fb318062d0005325520031801a25cfe038fe207f104f3802107c06797c063c7c05a0
:40108000ff20560100560000107c06752050010850f4089fad38fe107c06797c06382050010850f4089f9b38fe107c063c7c05fb2050010850f4089f8938fe107c05ff20ff
:4010c00077010f000052011103520031801980cfb838fe207f104f7c10e020703f71c07f5dd00862d00050005324532555231066fc6cfb6b246b2551241bfa51251bf9c0d6
:4011000009532552fa1c2477fc7a23bfe3512454fa512554f91860d07f104f380952fa540352f954023df900b02f3dfa00b02a62d00052fc532852fb60d550303f2852fce7
:401140000101532852fb090060d550003f2852fc532852fb5329819752fa110052f931801980d0293df700b0243df80ab01f56060162d00052037353285202735329512877
:4011800001015403512909005402800456060052fc540152fb540062d00052f70852f8085202085203087c10d538fe185328185329512854085129540750091308520731e5
:4011c00080532550801a25c02862d0005201532852005329512801015401512909005400520801305327512960d551273f28802662d00052015328520053295128010154b5
:4012000001512909005400520801575327512960d551273f2852f70852f80852020852030862d0007c10d518540318540238fe3d0200bf643d0300bf5f3d0600a02062d025
:40124000005201532852005329512801015401512909005400512960d5502d3f2862d0005201532852005329512801ff5401512909ff5400512960d550003f2852fc540519
:4012800052fb5404805462d00052055328520460d43e285406520553285204532951280101540551290900540452015326520060d43e265327512960d551273f28520153b0
:4012c0002852005329512801ff5401512909ff5400512960d552063f285205130152041b00cfa462d00052fc532852fb532938f7207f0013100000f801780238041808080b
:40130000101c180c30002a00070031060404040404040037000dff0030303030303030303030303030303030303030303030303030303030303030303030303030303030ea
:40134000303030303030303030303030303030303030303030303030303030303030303030303030303030303030303030303030303030303030303030303030303030306d
:40138000303030303030303030303030303030303030303030303030303030303030303030303030303030303030303030303030303030303030303030303030303030302d
:4013c00030303030303030303030303030303030303030303030303030303030303030303030303030303030303030303030303030303030303030303030303030303030ed
:4014000030303030303030303030303030303030303030303030303030303030303030303030303030303030303030303030303030303030303030303030303030303030ac
:020000040010ea
:020000040020da
:0200000067197e
:00000001ff
